:10000000A0040020F50800005D070000F1080000D2
:10001000F1080000F1080000F1080000F1080000FC
:10002000000000000000000000000000F1080000D7
:10003000F108000000000000F1080000F1080000D5
:100040000348044B834202D0034B03B11847704767
:10005000080000200800002000000000064B0749AF
:10006000C91A891048BF0131491003D0044B0BB1A4
:1000700001481847704700BF080000200800002012
:100080000000000010B5064C237843B9FFF7D8FFF5
:10009000044B13B10448AFF300800123237010BD5B
:1000A0002800002000000000A80B000008B5054B48
:1000B0001BB105490548AFF30080BDE80840FFF7D4
:1000C000CDBF00BF000000002C000020A80B0000E6
:1000D00008B50A4B0A4E9D681C68B26F4FF48771D1
:1000E000C2F340022046EB6982F0010298474FF4C8
:1000F0007A71084600F006FBEFE700BF740A0000C3
:1001000000080840022800D070470249024800F069
:1001100079B900BF800A00004400002008B5FFF74D
:10012000D7FF002008BD00BF0022034610461A601A
:10013000704700BF10B40B0A064C1B0153FA81F143
:1001400054F821300020C3F340035DF8044B1370D2
:10015000704700BF00080840090A490101F18041C9
:1001600001F500214B68002013807047090A4901FE
:1001700023EA020C01F180411A4001F5002142EA14
:100180000C4200208A6070470120CBB2984080B2B8
:1001900002B900040B0A5B0103F1804303F500235D
:1001A00098600020704700BF10B4090A490101F1AE
:1001B000804101F500210C6802EA030C4CEA040CB2
:1001C00062EA030202EA0C020A6000205DF8044BB6
:1001D000704700BF090A490101F1804101F5002182
:1001E0004B680020C3F30F4313807047012310B402
:1001F0004FEA112C4FEA4C1C0CF1804C0CF5002CF2
:10020000DCF80440C9B28B4099B203EA14435B1A8C
:10021000B3FA83F35B0900205DF8044B1370704759
:10022000090A490123EA020C01F180411A4001F553
:10023000002142EA0C420020CA607047012010B43D
:100240000B0A5B0103F1804303F50023C9B2DC68AC
:1002500000FA01F1012A4FEA01400DBF84438C43AB
:1002600004430C43DC6000205DF8044B704700BF82
:100270002DE9F84F0388DBB182464FF0000B4FF0B9
:100280000109DFF8D0800024304D4FEACB07DAF8BF
:10029000043035F8022BD919898891420AD00134EB
:1002A000032CF4D1BAF800300BF1010B5B45EAD80E
:1002B000BDE8F88FDB5909FA04F603F0B853B3F13F
:1002C000807FF6B298F8BB3413D0334231D1204A44
:1002D00004F1200612F81630DB09E0D012F81630CF
:1002E000012123F08003C82002F8163000F00AFA3A
:1002F000D5E7334211D0164A04F1200112F811302B
:10030000DB09CCD112F81130C82043F0800302F889
:100310001130012100F0F6F9C1E7012000F0BEFA2A
:1003200098F8BB340120334388F8BB3400F086FAD8
:10033000E1E7012000F0B2FA98F8BB34012023EA8B
:10034000060388F8BB3400F079FAC0E7A40A00007D
:100350000030084000E00140F8B50646FFF788FF8E
:10036000EFF31082012383F31088234F3B681BB9FE
:100370002249CB704023CB703B6801333B6082F352
:100380001088338823B300211D4D08E01B0113445E
:1003900045F82340328801318BB29A4218D97368EC
:1003A00053F8314003EBC1029288E0034FEA122375
:1003B000D2B2EBD502EB031055F820E024F4803CD8
:1003C0002EF4803E45F820E01B0145F820C0DEE712
:1003D000EFF31082012383F310883B6813B13B686D
:1003E000013B3B603B681BB980200449CB70C8705F
:1003F00082F31088F8BD00BF8C000020000D08407B
:100400000008084008B5034B03600846FFF7A4FF47
:10041000002008BD54524F5008B50846FFF79CFF16
:10042000002008BD70B5012686B001AB03A80C46BC
:1004300015460493ADF80C60ADF808100192FFF773
:1004400017FFEFF3108286F310881D490B681BB964
:1004500040261C48C370C6700B6801330B6082F3E2
:100460001088EA034FEA1423E4B219D41B01164A98
:10047000234442F82350EFF31082012383F31088C2
:100480000B6813B10B68013B0B600B681BB9802034
:100490000C49CB70C87082F31088002006B070BD84
:1004A000094A04EB031052F820601B0126F4803641
:1004B00042F8206025F4803642F82060D7E700BF7C
:1004C0008C000020000D084000080840064B07493A
:1004D00093F826001A6A51F82030C2F302620449E8
:1004E000D3400B60704700BF00E0014008000020CF
:1004F00098000020704700BFF8B54AF2035001236E
:100500004549464AA1F8FE03A2F80431B2F8043185
:100510009BB2002BFAD101204FF400454FF0090C9B
:100520003F4CDFF818E13F4EC4F804E0DFF810E17B
:100530003D4FC4F80CE0A2F800013C4A3649B060D7
:1005400030602760A5602561626191F82620086A05
:1005500054F82220364EC0F30260C240326081F867
:10056000133481F8A2C091F880341BB991F881341A
:1005700099074CD0284D95F88034002B3CD00022B0
:10058000254B83F8812483F880240023224981F8B5
:10059000323091F83C301A07FBD543F202100023A9
:1005A0001D4A088581F82A3092F83C309B06FBD51D
:1005B0000320052319494FF0F10C81F81C011D4956
:1005C000116282F8263092F82630156A54F823001A
:1005D000C5F30264E04030600123F0244FF425406D
:1005E000154981F80CC00B720C7382F8303082F818
:1005F0005230A2F8FE03F8BD0121C82085F880140E
:1006000000F080F895F88034012BFBD1B7E74FF468
:100610007A70FFF76FFFB8E700E0014000C00140CB
:100620000800002000700040002D310100C2EB0BDB
:1006300098000020211201200020004000127A00C2
:1006400000366E0138B50025284C0121C82084F8F9
:10065000285000F057F884F8245094F82430002BE8
:10066000FBD194F82430214943F0020384F824306C
:1006700091F82430C3F340009B07F9D41B4A81F85A
:10068000220092F8223003F0FF00002BF9D192F8FB
:100690004030164960F3C71382F8403091F840307B
:1006A000DB09FBD191F84200104A63F3C71081F8CF
:1006B000420092F84230DB09FBD192F844000B492A
:1006C00063F3C71082F8440091F84430C3F3C014B8
:1006D000DB09F9D1012000F0E1F8054B012083F896
:1006E000BB44BDE8384000F0A9B800BF0030084066
:1006F00000E00140704700BFA0F101000028FBD1DD
:10070000704700BF4FF47A7310B400FB01F1114C35
:10071000114A2468B2FBF4F2A1FB03043CB9B0FB1C
:10072000F2F0800860B15DF8044BFFF7E5BF92007E
:10073000B1FBF2F1A1FB03132BB908460028F2D15B
:100740005DF8044B70474FF0FF3C5DF8044B60468A
:10075000FFF7D2BF9800002000CA9A3B70B5002472
:100760000B4B0C4EB3F82021B3F84051ADB21540FD
:1007700025FA04F3DB0704D556F82430E0B203B1C0
:1007800098470134102CF3D1014BA3F8305170BDC0
:10079000006000404C00002030B5032085B000F020
:1007A0007DF86FF0FF054FF0FF31204C002322460B
:1007B0004FF0010E1E488564CDE90111039104F14B
:1007C000C00532F8020F590960B104A800EB81019D
:1007D00051F80C0C03F01F0C0EFA0CFC20EA0C0074
:1007E00041F80C0C954203F10103EAD10199114B38
:1007F0000F4A03201167C3F8801202995167C3F8AA
:10080000841203999167C3F8881200F017F8002347
:10081000094834F8022F03F1C00101330AB140F84E
:100820002120A542F5D105B030BD00BFDE0A000091
:100830000080004000E100E000600040EFF3108124
:10084000012383F31088124B33F8102092B22AB19F
:1008500033F81020013A92B223F8102033F8103008
:100860009BB293B910B40B4A0B4CB2F8FE3334F878
:1008700010009BB243F4254323EA0003A2F8FE33A1
:1008800081F310885DF8044B704781F3108870473E
:100890009000002000E00140A00B000030B4EFF316
:1008A0001081012383F310880E4A32F810309BB276
:1008B0006BB90D4C0D4DB4F8FE3335F810C09BB23A
:1008C00043EA0C0343F425439BB2A4F8FE3332F809
:1008D000103001339BB222F8103081F3108830BC05
:1008E000704700BF9000002000E00140A00B000016
:1008F00000BE704708B500F003F8FFF70FFCFEE7F5
:100900004FF4700270B52B4B2B4CC3F8882000209D
:100910009C60FFF7F7FBFFF7EFFD0120FFF7F2FB0D
:100920002368A3F5806383F30A882448244A0021BE
:10093000121A00F055F82348234A2449121A00F0ED
:1009400057F8234D234B5B1B002B07DD00249E1023
:1009500055F8043B01349847A642F9DCFFF7B6FD91
:10096000FFF770FE0320FFF799FF00234FF6FF709B
:10097000194903F1080201330C2B21F81200F8D1B8
:1009800000240320FFF75AFF0320FFF787FF134BD4
:1009900003205C609C60DC601C61FFF74FFF02205D
:1009A000FFF7B0FBFFF7F8FE2046BDE87040FFF709
:1009B000A1BE00BF00ED00E0000000002800002004
:1009C0009C0000200000002008000020AC0B00006C
:1009D0000000002004000020000D084000000E4030
:1009E00002440346934200D1704703F8011BF9E724
:1009F0000A44431E914200D1704710B511F8014BD3
:100A0000914203F8014FF9D110BDFFFF4275696CA7
:100A10007420776974682052656E65736173204134
:100A20006476616E63656420466C657869626C65A6
:100A300020536F667477617265205061636B6167E4
:100A4000652076657273696F6E20352E382E300002
:100A5000352E382E3000000000000805F8B500BF24
:100A6000F8BC08BC9E467047F8B500BFF8BC08BC8F
:100A70009E46704744000020800A0000AC0A000037
:100A8000030000008C0A00000000000000000100CC
:100A900008010000040000000E0100000000010039
:100AA00000030000020403040404FFFF0504000027
:100AB000290100001904000025040000ED010000D8
:100AC0003D0200003501000089010000A90100007D
:100AD000D501000021020000590100006D01000055
:100AE0000000000000000000000000000000000006
:100AF00000000000000000000000000000000000F6
:100B000000000000000000000000000000000000E5
:100B100000000000000000000000000000000000D5
:100B200000000000000000000000000000000000C5
:100B300000000000000000000000000000000000B5
:100B400000000000000000000000000000000000A5
:100B50000000000000000000000000000000000095
:100B60000000000000000000000000000000000085
:100B70000000000000000000000000000000000075
:100B80000000000000000000000000000000000065
:100B90000000000000000000000000000000000055
:0C0BA0000100020008001000000000002E
:080BAC00AD000000850000000F
:020000040100F9
:10A10000FFFFFFFFFFFFFFFFFFFFFFFFFFFFFFFF5F
:04A11000FFFFFFFF4F
:04A13400FFFFFFFF2B
:10A20000FFFDFFFFFFFFFFFFFFFFFFFFFFFFFFFF60
:10A21000FFFFFFFFFFFFFFFFFFFFFFFFFFFFFFFF4E
:10A22000FFFFFFFFFFFFFFFFFFFFFFFFFFFFFFFF3E
:10A23000FFFFFFFFFFFFFFFFFFFFFFFFFFFFFFFF2E
:10A24000FFFFFFFFFFFFFFFFFFFFFFFFFFFFFFFF1E
:10A25000FFFFFFFFFFFFFFFFFFFFFFFFFFFFFFFF0E
:10A26000FFFFFFFFFFFFFFFFFFFFFFFFFFFFFFFFFE
:10A27000FFFFFFFFFFFFFFFFFFFFFFFFFFFFFFFFEE
:10A28000F8F8FFFFFFFFFFFFFFFFFFFFFFFFFFFFEC
:10A29000FFFFFFFFFFFFFFFFFFFFFFFFFFFFFFFFCE
:10A2A000FFFFFFFFFFFFFFFFFFFFFFFFFFFFFFFFBE
:10A2B000FFFFFFFFFFFFFFFFFFFFFFFFFFFFFFFFAE
:10A2C000FFFFFFFFFFFFFFFFFFFFFFFFFFFFFFFF9E
:04000003000008F5FC
:00000001FF
