:1000000058060020A51100000D100000A1110000ED
:10001000A1110000A1110000A1110000A111000018
:10002000000000000000000000000000A11100001E
:10003000A111000000000000A1110000A1110000AA
:100040009908000031090000090A0000F10A0000C7
:1000500000000000000000000000000000000000A0
:100060000000000000000000000000000000000090
:100070000000000000000000000000000000000080
:100080000000000000000000000000000000000070
:100090000000000000000000000000000000000060
:1000A0000000000000000000000000000000000050
:1000B0000000000000000000000000000000000040
:1000C0000000000000000000000000000000000030
:1000D0000000000000000000000000000000000020
:1000E0000000000000000000000000000000000010
:1000F0000000000000000000000000000000000000
:1001000000000000000000000000000000000000EF
:1001100000000000000000000000000000000000DF
:1001200000000000000000000000000000000000CF
:1001300000000000000000000000000000000000BF
:1001400000000000000000000000000000000000AF
:10015000000000000000000000000000000000009F
:10016000000000000000000000000000000000008F
:10017000000000000000000000000000000000007F
:10018000000000000000000000000000000000006F
:10019000000000000000000000000000000000005F
:1001A000000000000000000000000000000000004F
:1001B000000000000000000000000000000000003F
:1001C0000348044B834202D0034B03B118477047E6
:1001D000080000200800002000000000064B07492E
:1001E000C91A891048BF0131491003D0044B0BB123
:1001F00001481847704700BF080000200800002091
:100200000000000010B5064C237843B9FFF7D8FF73
:10021000044B13B10448AFF300800123237010BDD9
:1002200028000020000000006014000008B5054B05
:100230001BB105490548AFF30080BDE80840FFF752
:10024000CDBF00BF000000002C00002060140000A3
:1002500010B500F07BF800210A22084600F038F8BB
:1002600000220A21104600F033F80A22002011462D
:1002700000F02EF800220A20114600F029F80A2288
:100280000021104600F024F80A210022084600F060
:100290001FF806221146104600F01AF80424002226
:1002A0001146104600F014F8013CF8D14FF47A7171
:1002B000084600F07FFECEE7022800D070470249D2
:1002C000024800F051BD00BF54130000440000205C
:1002D000002330B589B004AC8DF8073041FA03F53E
:1002E00040FA03FC15F0010F18BF4FF0780E42FAE8
:1002F00003F508BF4FF0600E1CF0010F14BF4FF064
:10030000780C4FF0600C15F0010F14BF78256025B4
:10031000013304F801ED082B84F808C02574DDD101
:1003200007231822084802A900F006F96424064DA4
:100330000723012228460DEB030100F0FDF8013CE4
:10034000F6D109B030BD00BF4C0000200149024881
:1003500000F01EB9241300004C000020704700BFBD
:1003600008B5FFF775FF002008BD00BF70B51D463A
:1003700083689DF810C01B7813F0400340F0A980FB
:10038000C0E90312C0E905330E464168C56180F833
:1003900020C004464869002830D0BCF10F0FA56189
:1003A00040F2828002204B695B681B68D97860F359
:1003B0000511D970022063685B695B681B689978D6
:1003C00060F3830199706368A9B25B695B681B681D
:1003D000D98163685B695B681B689A60002A00F0DA
:1003E000888063685B695A68186811689A685368FE
:1003F0009847002857D1616894F820C00B69002BFA
:1004000031D065610B69BCF10F0F5B681B68DA784E
:1004100055D9022161F30512DA7002216368ADB289
:100420001B695B681B68DA7861F38302DA706368C2
:100430001B695B681B68DD8163681B695B681B68FF
:100440005E60002E64D0A268137823F0200313703E
:1004500063681B69D3E901121868096852689047FC
:1004600008BB94F820C0A168BCF10F0FCA7A0B8AB0
:10047000D2B29BB22FD90CF1010C22F040024FEA0C
:100480009C0CACF1050C42F020020020CA7223F44F
:100490007063A26843EA0C239BB21382A2681378AC
:1004A00043F06003137070BD4969BCF1070F4968E0
:1004B000096818D8C87863F30510C8707AE7BCF1EA
:1004C000070F8ABF012122F0300261F30512DA70B2
:1004D000A3E7082070BDBCF1070F94BF42F04002B3
:1004E00002F09F02D1E70120CB7860F30513CB70B7
:1004F00060E763680E485B695B681B68997862F324
:100500008301997063685B695B681B68986068E742
:10051000636808491B695B681B68DA7866F38302C5
:10052000DA7063681B695B681B6859608BE700BF02
:10053000800000207C00002010B594461C4682B04C
:10054000002263460094FFF711FF02B010BD00BF08
:1005500030B5836A85B004468C4601ADABB193E8F3
:10056000070085E8070062681846127883F804C01F
:100570001A60E26A9A60636A9847A36A1BB195E8B9
:10058000070083E8070005B030BD2B46EBE700BF4E
:100590002DE9F04F0B78DFF8FC820F691B020D4646
:1005A000044683B098448FB14FF000627B681B68AB
:1005B0001A607B681B68C3F80880BB68D7E9000134
:1005C0001B6898470646002840F011816B698BB183
:1005D0004FF400215A68126811605A681268C2F814
:1005E00004809A68D3E90001126890470646002803
:1005F00040F0018100216560AB696362EB69C4E989
:100600000A132B7803F5800303F58D531B02A360B7
:10061000687A002800F0F980B02689466A7BEF7A74
:10062000120342EA47022B6AAF7A3A431F78002F3F
:1006300040F0F08001212D78A940890740F01A810F
:100640005D7893F802806F0126EAC51647EA4507F0
:1006500022F070011D79DA78374308FA02F81201A6
:100660001DB1022D0CBF302520255E792EB1012E43
:1006700014BF49F0010949F003091E7A06F0030688
:1006800042EA86020A4399790091002840F0C58029
:10069000997A5E7A93F80BC042F460420191EFF3CD
:1006A000108A012080F31088616891F800E0744995
:1006B000CEF1130ED1F804B000FA0EFE2BEA0E0BA9
:1006C000C1F804B049688AF310884FF0000E5FFA51
:1006D00089F1D4F808901FFA82FB99F803A089F8F1
:1006E00003E0A268FFB217701027A2685FFA88F8CB
:1006F00082F80180A2689570DD79A368019A9D72E5
:10070000A3681E73A3685A73A368009A83F80EC087
:10071000A368D973A368A3F810B0A36883F8202056
:10072000A36883F82170626892F9023073457ADA1F
:10073000544992F90130002B26DB527903F16040D5
:100740001201D2B200F5614080F800234E4A41F810
:10075000234003F1C00052F8205025F4803542F8C0
:10076000205052F82020BFF35F8F01205A099200D9
:1007700003F01F0302F1604202F5614200FA03F345
:10078000C2F8803113606268107A92F904303F4DEC
:100790000201EE183C48D2B286F8002341F823400B
:1007A00003F1C00250F8226026F4803640F822603F
:1007B00050F82220BFF35F8F012203F01F005B0976
:1007C0009B0003F1604303F561438240C3F880213D
:1007D0001A600026636893F90320DB7915441B0136
:1007E000DBB285F800332A4B41F8224023603046C3
:1007F00003B0BDE8F08F002FF9D0BB6838681B6AE2
:100800009847304603B0BDE8F08FB82608214FF076
:10081000100903E741F0B10612E74FF0000C6646FD
:10082000CDF804C03BE7927903F160451201154908
:10083000D2B205F5614585F80023134A41F82340FB
:1008400003F1C00552F825606EF3104642F82560AA
:1008500052F82520BFF35F8F03F01F025B099B0056
:1008600003F16043904003F56143C3F880011860D1
:1008700062685EE7B0FA80F1490942EAC112DFE638
:1008800000400840C80000200060004000E100E097
:100890004950535204A0114010B4EFF30383103BAE
:1008A000204A5BB203F1C00152F8210020F48030ED
:1008B00042F8210052F821201B4A52F82330D3E994
:1008C00006218A421DD018699C6840B393F8201015
:1008D0000F290ED8072995BF2179A188815420F8C6
:1008E0001210D96901328A429A610AD05DF8044B2C
:1008F0007047616840F82210D96901328A429A61D2
:10090000F4D15B6893F90330012203F01F0007491B
:100910005B09824041F823205DF8044B7047606812
:10092000E0E700BF00600040C800002000E100E0F8
:1009300010B5EFF30383103B30495BB203F1C00203
:1009400051F8220020F4803041F8220051F8222092
:100950002B4A52F823305C68226A72B392F801C0C5
:10096000D869BCF1010F5A6916D082420BD0D3E985
:10097000020129B193F820400F2C05D951F822101B
:10098000416001325A6110BD072C95BF895C31F876
:10099000121001718180F4E700F1FF3E96450FD0FF
:1009A00021690029E1D094F90320164802F01F04C0
:1009B00051090CFA04F440F821405A69D869D4E787
:1009C00094F9030000F1C00251F8224024F480346D
:1009D00041F8224051F82220BFF35F8F4209920074
:1009E00000F01F0002F160420CFA00F002F56142D3
:1009F000C2F8800110605A69D869B6E7006000400B
:100A0000C800002000E100E010B4EFF30382103AC8
:100A1000344953B203F1C00051F8204002F0FF0204
:100A200024F4803441F8204051F820102E4951F828
:100A300023008168C978890706D54168497A012968
:100A400002D05DF8044B70470121284C5B0902F08D
:100A50001F02203301FA02F244F82320BFF34F8F24
:100A6000BFF36F8F436893F90230002B0BDB5A09F9
:100A700003F01F03994002F1200344F82310BFF351
:100A80004F8FBFF36F8F8268137823F0400313708A
:100A9000436893F90230002B04DA01215DF8044B1E
:100AA000FFF756BD0F4A03F1C00152F8214024F46C
:100AB000803442F8214052F82120BFF35F8F01219A
:100AC0005A09920003F01F0302F1604202F56142ED
:100AD00001FA03F3C2F88031136001215DF8044B81
:100AE000FFF736BD00600040C800002000E100E0D4
:100AF00070B5EFF30383344A103B5CB252F82450D4
:100B00006B6893F90230002B0DDB01212F485A0945
:100B100003F01F03203201FA03F340F82230BFF341
:100B20004F8FBFF36F8FAA68137823F040031370C1
:100B30006B6893F90230002B1ADB254A03F1C001E0
:100B400052F8210020F4803042F8210052F8212090
:100B5000BFF35F8F01215A09920003F01F0302F1D6
:100B6000604202F5614201FA03F3C2F8803113607A
:100B70000021AA68D378D1701A07DEB211D4F30726
:100B800015D406F01406142E19D0114A04F1C0032E
:100B900052F8231021F4803142F8231052F8233008
:100BA00070BD05212846FFF7D3FCF307E9D50421E2
:100BB000284606F01406FFF7CBFC142EE5D10821D9
:100BC0002846FFF7C5FCE0E7C800002000E100E090
:100BD000006000402DE9F84F0388DBB182464FF0FA
:100BE000000B4FF00109DFF8D0800024304D4FEAB0
:100BF000CB07DAF8043035F8022BD91989889142ED
:100C00000AD00134032CF4D1BAF800300BF1010BF7
:100C10005B45EAD8BDE8F88FDB5909FA04F603F022
:100C2000B853B3F1807FF6B298F8BB3413D0334297
:100C300031D1204A04F1200612F81630DB09E0D049
:100C400012F81630012123F08003C82002F8163074
:100C500000F0B0F9D5E7334211D0164A04F1200173
:100C600012F81130DB09CCD112F81130C82043F052
:100C7000800302F81130012100F09CF9C1E7012046
:100C800000F064FA98F8BB340120334388F8BB3491
:100C900000F02CFAE1E7012000F058FA98F8BB3494
:100CA000012023EA060388F8BB3400F01FFAC0E7EE
:100CB000501400000030084000E00140F8B506463E
:100CC000FFF788FFEFF31082012383F31088234F8F
:100CD0003B681BB92249CB704023CB703B68013382
:100CE0003B6082F31088338823B300211D4D08E058
:100CF0001B01134445F82340328801318BB29A42DC
:100D000018D9736853F8314003EBC1029288E003AD
:100D10004FEA1223D2B2EBD502EB031055F820E0D4
:100D200024F4803C2EF4803E45F820E01B0145F879
:100D300020C0DEE7EFF31082012383F310883B68C5
:100D400013B13B68013B3B603B681BB98020044901
:100D5000CB70C87082F31088F8BD00BFC4000020BB
:100D6000000D08400008084008B5034B0360084622
:100D7000FFF7A4FF002008BD54524F50064B07490F
:100D800093F826001A6A51F82030C2F3026204492F
:100D9000D3400B60704700BF00E001400800002016
:100DA00050020020704700BFF8B54AF203500123FB
:100DB0004549464AA1F8FE03A2F80431B2F80431CD
:100DC0009BB2002BFAD101204FF400454FF0090CE3
:100DD0003F4CDFF818E13F4EC4F804E0DFF810E1C3
:100DE0003D4FC4F80CE0A2F800013C4A3649B0601F
:100DF00030602760A5602561626191F82620086A4D
:100E000054F82220364EC0F30260C240326081F8AE
:100E1000133481F8A2C091F880341BB991F8813461
:100E200099074CD0284D95F88034002B3CD00022F7
:100E3000254B83F8812483F880240023224981F8FC
:100E4000323091F83C301A07FBD543F202100023F0
:100E50001D4A088581F82A3092F83C309B06FBD564
:100E60000320052319494FF0F10C81F81C011D499D
:100E7000116282F8263092F82630156A54F8230061
:100E8000C5F30264E04030600123F0244FF42540B4
:100E9000154981F80CC00B720C7382F8303082F85F
:100EA0005230A2F8FE03F8BD0121C82085F8801455
:100EB00000F080F895F88034012BFBD1B7E74FF4B0
:100EC0007A70FFF76FFFB8E700E0014000C0014013
:100ED0000800002000700040002D310100C2EB0B23
:100EE00050020020211201200020004000127A0050
:100EF00000366E0138B50025284C0121C82084F841
:100F0000285000F057F884F8245094F82430002B2F
:100F1000FBD194F82430214943F0020384F82430B3
:100F200091F82430C3F340009B07F9D41B4A81F8A1
:100F3000220092F8223003F0FF00002BF9D192F842
:100F40004030164960F3C71382F8403091F84030C2
:100F5000DB09FBD191F84200104A63F3C71081F816
:100F6000420092F84230DB09FBD192F844000B4971
:100F700063F3C71082F8440091F84430C3F3C014FF
:100F8000DB09F9D1012000F0E1F8054B012083F8DD
:100F9000BB44BDE8384000F0A9B800BF00300840AD
:100FA00000E00140704700BFA0F101000028FBD124
:100FB000704700BF4FF47A7310B400FB01F1114C7D
:100FC000114A2468B2FBF4F2A1FB03043CB9B0FB64
:100FD000F2F0800860B15DF8044BFFF7E5BF9200C6
:100FE000B1FBF2F1A1FB03132BB908460028F2D1A3
:100FF0005DF8044B70474FF0FF3C5DF8044B6046D2
:10100000FFF7D2BF5002002000CA9A3B70B50024FF
:101010000B4B0C4EB3F82021B3F84051ADB2154044
:1010200025FA04F3DB0704D556F82430E0B203B107
:1010300098470134102CF3D1014BA3F8305170BD07
:10104000006000408400002030B5032085B000F02F
:101050007DF86FF0FF054FF0FF31204C0023224652
:101060004FF0010E1E488564CDE90111039104F192
:10107000C00532F8020F590960B104A800EB8101E4
:1010800051F80C0C03F01F0C0EFA0CFC20EA0C00BB
:1010900041F80C0C954203F10103EAD10199114B7F
:1010A0000F4A03201167C3F8801202995167C3F8F1
:1010B000841203999167C3F8881200F017F800238F
:1010C000094834F8022F03F1C00101330AB140F896
:1010D0002120A542F5D105B030BD00BF8E13000020
:1010E0000080004000E100E000600040EFF310816C
:1010F000012383F31088124B33F8102092B22AB1E7
:1011000033F81020013A92B223F8102033F810304F
:101110009BB293B910B40B4A0B4CB2F8FE3334F8BF
:1011200010009BB243F4254323EA0003A2F8FE33E8
:1011300081F310885DF8044B704781F31088704785
:101140004802002000E001405814000030B4EFF3E2
:101150001081012383F310880E4A32F810309BB2BD
:101160006BB90D4C0D4DB4F8FE3335F810C09BB281
:1011700043EA0C0343F425439BB2A4F8FE3332F850
:10118000103001339BB222F8103081F3108830BC4C
:10119000704700BF4802002000E0014058140000E2
:1011A00000BE704708B500F003F8FFF7D9F8FEE776
:1011B0004FF4700270B52B4B2B4CC3F888200020E5
:1011C0009C60FFF779F8FFF7EFFD0120FFF774F857
:1011D0002368A3F5806383F30A882448244A002106
:1011E000121A00F055F82348234A2449121A00F035
:1011F00057F8234D234B5B1B002B07DD00249E106B
:1012000055F8043B01349847A642F9DCFFF7B6FDD8
:10121000FFF770FE0320FFF799FF00234FF6FF70E2
:10122000194903F1080201330C2B21F81200F8D1FF
:1012300000240320FFF75AFF0320FFF787FF134B1B
:1012400003205C609C60DC601C61FFF74FFF0220A4
:10125000FFF732F8FFF7F8FE2046BDE87040FFF7D1
:10126000A1BE00BF00ED00E000000000280000204B
:101270005402002000000020080000206414000038
:101280000000002004000020000D084000000E4077
:1012900002440346934200D1704703F8011BF9E76B
:1012A0000A44431E914200D1704710B511F8014B1A
:1012B000914203F8014FF9D110BDFFFF4275696CEF
:1012C0007420776974682052656E6573617320417C
:1012D0006476616E63656420466C657869626C65EE
:1012E00020536F667477617265205061636B61672C
:1012F000652076657273696F6E20352E382E30004A
:10130000352E382E3000000000000805F8B500BF6B
:10131000F8BC08BC9E467047F8B500BFF8BC08BCD6
:101320009E46704701000102030C0C0C0C000000EB
:101330000100000000000000000000005D0300004C
:10134000000000004813000000010000010000063A
:101350000000000006000000601300000000000014
:10136000000001060001000000000106010100006C
:101370000000010602010000000001000801000059
:10138000040000000E010000000001000003000046
:10139000C901CA01CD01CC0100000000000000001D
:1013A000000000000000000000000000000000003D
:1013B000000000000000000000000000000000002D
:1013C000000000000000000000000000000000001D
:1013D000000000000000000000000000000000000D
:1013E00000000000000000000000000000000000FD
:1013F00000000000000000000000000000000000ED
:1014000000000000000000000000000000000000DC
:1014100000000000000000000000000000000000CC
:1014200000000000000000000000000000000000BC
:1014300000000000000000000000000000000000AC
:10144000000000000000000000000000000000009C
:10145000020403040404FFFF01000200080010005E
:041460000000000088
:081464002D020000050200004A
:020000040100F9
:10A10000FFFFFFFFFFFFFFFFFFFFFFFFFFFFFFFF5F
:04A11000FFFFFFFF4F
:04A13400FFFFFFFF2B
:10A20000FFFDFFFFFFFFFFFFFFFFFFFFFFFFFFFF60
:10A21000FFFFFFFFFFFFFFFFFFFFFFFFFFFFFFFF4E
:10A22000FFFFFFFFFFFFFFFFFFFFFFFFFFFFFFFF3E
:10A23000FFFFFFFFFFFFFFFFFFFFFFFFFFFFFFFF2E
:10A24000FFFFFFFFFFFFFFFFFFFFFFFFFFFFFFFF1E
:10A25000FFFFFFFFFFFFFFFFFFFFFFFFFFFFFFFF0E
:10A26000FFFFFFFFFFFFFFFFFFFFFFFFFFFFFFFFFE
:10A27000FFFFFFFFFFFFFFFFFFFFFFFFFFFFFFFFEE
:10A28000F8F8FFFFFFFFFFFFFFFFFFFFFFFFFFFFEC
:10A29000FFFFFFFFFFFFFFFFFFFFFFFFFFFFFFFFCE
:10A2A000FFFFFFFFFFFFFFFFFFFFFFFFFFFFFFFFBE
:10A2B000FFFFFFFFFFFFFFFFFFFFFFFFFFFFFFFFAE
:10A2C000FFFFFFFFFFFFFFFFFFFFFFFFFFFFFFFF9E
:04000003000011A543
:00000001FF
