S012000030355F4750545F50574D2E7372656310
S3150000000058060020B50F00001D0E0000B10F0000BD
S31500000010B10F0000B10F0000B10F0000B10F0000DA
S31500000020000000000000000000000000B10F00000A
S31500000030B10F000000000000B10F0000B10F00007A
S31500000040F10A0000000000000000000000000000AF
S31500000050000000000000000000000000000000009A
S31500000060000000000000000000000000000000008A
S31500000070000000000000000000000000000000007A
S31500000080000000000000000000000000000000006A
S31500000090000000000000000000000000000000005A
S315000000A0000000000000000000000000000000004A
S315000000B0000000000000000000000000000000003A
S315000000C0000000000000000000000000000000002A
S315000000D0000000000000000000000000000000001A
S315000000E0000000000000000000000000000000000A
S315000000F000000000000000000000000000000000FA
S3150000010000000000000000000000000000000000E9
S3150000011000000000000000000000000000000000D9
S3150000012000000000000000000000000000000000C9
S3150000013000000000000000000000000000000000B9
S3150000014000000000000000000000000000000000A9
S315000001500000000000000000000000000000000099
S315000001600000000000000000000000000000000089
S315000001700000000000000000000000000000000079
S315000001800000000000000000000000000000000069
S315000001900000000000000000000000000000000059
S315000001A00000000000000000000000000000000049
S315000001B00000000000000000000000000000000039
S315000001C00348044B834202D0034B03B118477047E0
S315000001D0080000200800002000000000064B074928
S315000001E0C91A891048BF0131491003D0044B0BB11D
S315000001F001481847704700BF08000020080000208B
S315000002000000000010B5064C237843B9FFF7D8FF6D
S31500000210044B13B10448AFF300800123237010BDD3
S315000002202800002000000000C412000008B5054B9D
S315000002301BB105490548AFF30080BDE80840FFF74C
S31500000240CDBF00BF000000002C000020C41200003B
S3150000025080B50D4B0D4E1D689C685968226828466E
S3150000026090473146636A28469847B268084BDFF8DC
S3150000027028E0A3FB0213074F5B0928466168CEF806
S3150000028000203B608847FEE7341100004400002050
S31500000290F119760554000020500000200379FBB9BF
S315000002A010B4104A104B114814681968006864B9F4
S315000002B00144196069B911600D4B01229868C4693F
S315000002C0186823465DF8044B1847091A1960002977
S315000002D0F1D0084B1B688B429CBF01231360EBE7F0
S315000002E0704700BF5C00002058000020540000202A
S315000002F03411000050000020022800D07047024947
S31500000300024800F0D5B800BF9C1100006000002034
S3150000031008B5FFF79DFF002008BD00BF2DE9F84F87
S315000003200388DBB182464FF0000B4FF00109DFF87E
S31500000330D0800024304D4FEACB07DAF8043035F888
S31500000340022BD919898891420AD00134032CF4D1A1
S31500000350BAF800300BF1010B5B45EAD8BDE8F88F1F
S31500000360DB5909FA04F603F0B853B3F1807FF6B20D
S3150000037098F8BB3413D0334231D1204A04F1200619
S3150000038012F81630DB09E0D012F81630012123F0FE
S315000003908003C82002F8163000F014FDD5E733427A
S315000003A011D0164A04F1200112F81130DB09CCD124
S315000003B012F81130C82043F0800302F811300121F1
S315000003C000F000FDC1E7012000F0C8FD98F8BB343D
S315000003D00120334388F8BB3400F090FDE1E70120AB
S315000003E000F0BCFD98F8BB34012023EA060388F828
S315000003F0BB3400F083FDC0E78012000000300840E7
S3150000040000E00140F8B50646FFF788FFEFF31082DB
S31500000410012383F31088234F3B681BB92249CB7015
S315000004204023CB703B6801333B6082F310883388EE
S3150000043023B300211D4D08E01B01134445F823405A
S31500000440328801318BB29A4218D9736853F8314019
S3150000045003EBC1029288E0034FEA1223D2B2EBD536
S3150000046002EB031055F820E024F4803C2EF4803E85
S3150000047045F820E01B0145F820C0DEE7EFF31082C7
S31500000480012383F310883B6813B13B68013B3B6053
S315000004903B681BB980200449CB70C87082F3108872
S315000004A0F8BD00BFC8000020000D08400008084045
S315000004B008B5034B03600846FFF7A4FF002008BDFC
S315000004C054524F5003460020D3E9022393607047ED
S315000004D003460020D3E902235360704703460020F9
S315000004E0D3E90223D3607047034670B45A689E6806
S315000004F0D2690020D2E9011444F00045D468756140
S315000005009D6844F00044AC619C6841F00041216163
S31500000510146999684C629B6852699A6270BC70470C
S3150000052003464FF00041002210B49C68104621613A
S315000005309C6861619C68A16199684A629B689A623D
S315000005405DF8044B704700BF83684A1E9A6643688D
S315000005501B782BB983684908013959658368996501
S315000005608368D96AC90707D44FF4AA015A66836813
S315000005701964D0E90232DA600020704703469B68AE
S315000005801232013903EB820300205960704700BF25
S3150000059003469A680020D26AC2F300020A719B6879
S315000005A09B6C0B60704700BF84460020CCE9063286
S315000005B0CCF81410704700BF70B5836984B0044648
S315000005C08C46164601AD9BB193E8070085E8070007
S315000005D083F804C09E60E26918461A60636998470A
S315000005E0A3691BB195E8070083E8070004B070BD56
S315000005F02B46EDE702464FF0010C30B494680C4DE3
S31500000600646E0C4B64448C6092681B68D46A2A6AD8
S3150000061081F800C0C4F3C35CC2F30264A34002F0D5
S315000006200702D34023FA0CF3002030BC4B6070471E
S3150000063000E001405402002030B48C6E01342AB12F
S31500000640944203D930BC013A1A607047029D496B47
S315000006500078ED0754BF01F01F01C1F304410328E0
S3150000066008D9090981F001016AB9A1B930BC022291
S315000006705A60704701F00C01A1F10401B1FA81F151
S315000006804909002AF1D0944201D80029EED130BCA4
S3150000069003225A607047002CE8D0F8E7FFFFFFFFFF
S315000006A09FED397B2DE9F04385B00092866802AB59
S315000006B0074688461446406802F003090A46314652
S315000006C08DED027BFFF7B8FF039B356B93B914F0F2
S315000006D0080F14BF04220222A107029820D502F1B6
S315000006E0120106EB81014860B968133201EB820101
S315000006F04860BE6862061BD5326CB9F1010F42F440
S315000007008002326427D025F44035BE6845EA0345A9
S31500000710B9F1000F16D10020356305B0BDE8F083AE
S315000007204A44123206EB820250606206BE68E3D487
S31500000730B9F1010F23D025F44035022C45EA0345D3
S31500000740E6D173B925F0407545EA036500203563A7
S3150000075005B0BDE8F08325F04075BE6845EA03653F
S31500000760F4E70121786802AB009142463146FFF773
S3150000077063FF039B25F0407545EA0365E6E7022C17
S31500000780E0D1DEE7AFF30080FFFFFFFF00000000CF
S31500000790002800DA704710B400F160430901124CDA
S315000007A0C9B203F5614383F80013104B44F82020C7
S315000007B000F1C00253F8221021F4803143F82210D0
S315000007C053F82230BFF35F8F012243099B0000F0EC
S315000007D01F0003F1604303F561438240C3F88021A3
S315000007E01A605DF8044B7047CC00002000600040A2
S315000007F04FF0010C2DE9F04300270A7C41600CFA0A
S3150000080002F212F00F0FC2600CBF62463A46027443
S315000008100A7C8B4B0D4613441B0283604B690446CE
S3150000082043618B6985B0C0E90673CE69EFF310802A
S315000008308CF310884FF000412A7C824BD1401A6914
S3150000084022EA01021A611B6980F310884FF42542DF
S31500000850A36800201A60A3689FED777BDF62A36818
S31500000860DF63A3689F642A782B7A032A4FF000423D
S31500000870A7684FEAC35308BF43F480336968FB6235
S31500000880A36801391A61A3685A61A3689A61A368CB
S315000008905862A3689862A368B269DA61A368F269CC
S315000008A01A62A3689966A36859662B788DED027B58
S315000008B0B76B002B40F089804FF0010903206A686E
S315000008C0D4F808805208013A0292C8F85420A16868
S315000008D08A652978032903D9A168CA65A1680A66C9
S315000008E0B26BD2B93278AAB12A787178022A4FEA65
S315000008F0811E4FEA011C00F09880032A03D00029CC
S315000009000CBF062209223A4342EA0E0242EA0C02D0
S3150000091042F48077B278002A6CD16268D26992F884
S315000009203010CB0705D5916AA3680139D96492F8CE
S3150000093030108B0703D5D26AA168013A0A650022F6
S31500000940A1688A63A168C1F88820B26B3AB996F8A3
S31500000950212096F82010520742EA4132174396F8B2
S315000009603020002A14BF4FF4A0014FF4AA01A26858
S3150000097011642A78012A04D10022A168CA64A168F8
S315000009800A65A2685763A2681063A268C2F830902D
S31500000990D4E90232DA60697C224695F91200FFF743
S315000009A0F7FE224696F8221096F92400FFF7F0FE8D
S315000009B096F92500224696F82310FFF7E9FE002057
S315000009C0214B236005B0BDE8F083012BD4F80880E5
S315000009D026D000904146EA68606802ABFFF72CFE1D
S315000009E0DDE902210B0643EA014343F0030043F02D
S315000009F001096AE796F803C029784FEA0C12022922
S31500000A0042EA8C1213D0032904D0BCF1000F0CBFAC
S31500000A10062109210A4347EA024242F080777CE731
S31500000A20994603204FF0FF324FE709226BE7092171
S31500000A30F0E700BFAFF30080FFFFFFFF00000000FC
S31500000A4090164000004008405450470030B44168BA
S31500000A50034691F91220C969002A10DB012402F02D
S31500000A601F05AC405009204D203045F82040BFF30B
S31500000A704F8FBFF36F8F00241C4840F8224091F936
S31500000A802420002A10DB012402F01F05AC40500987
S31500000A90154D203045F82040BFF34F8FBFF36F8FC1
S31500000AA00024124840F8224091F92520002A11DB43
S31500000AB001200D4C510902F01F0C203100FA0CF0F8
S31500000AC044F82100BFF34F8FBFF36F8F0020074913
S31500000AD041F822000020D3E90221186091609B684A
S31500000AE0586330BC704700BF00E100E0CC00002036
S31500000AF0F0B5EFF30382103A214C51B201F1C00C6C
S31500000B0054F82C3023F4803344F82C308B0003F156
S31500000B10804303F5C043D3F800031A4850F8210078
S31500000B20456895F800E0BEF1010F08D043692BB186
S31500000B30BDE8F04000221146FFF73EBDF0BD00259E
S31500000B40D0E90267B760866802F0FF02B56486687E
S31500000B50F5648668356554F82C6065F3104644F8EC
S31500000B602C60D3F80033BFF35F8F074C4B0902F0BC
S31500000B701F020EFA02F2603344F82320D6E700BFC4
S31500000B8000600040CC00002000E100E0064B074971
S31500000B9093F826001A6A51F82030C2F3026204491B
S31500000BA0D3400B60704700BF00E001400800002002
S31500000BB054020020704700BFF8B54AF203500123E3
S31500000BC04549464AA1F8FE03A2F80431B2F80431B9
S31500000BD09BB2002BFAD101204FF400454FF0090CCF
S31500000BE03F4CDFF818E13F4EC4F804E0DFF810E1AF
S31500000BF03D4FC4F80CE0A2F800013C4A3649B0600B
S31500000C0030602760A5602561626191F82620086A38
S31500000C1054F82220364EC0F30260C240326081F89A
S31500000C20133481F8A2C091F880341BB991F881344D
S31500000C3099074CD0284D95F88034002B3CD00022E3
S31500000C40254B83F8812483F880240023224981F8E8
S31500000C50323091F83C301A07FBD543F202100023DC
S31500000C601D4A088581F82A3092F83C309B06FBD550
S31500000C700320052319494FF0F10C81F81C011D4989
S31500000C80116282F8263092F82630156A54F823004D
S31500000C90C5F30264E04030600123F0244FF42540A0
S31500000CA0154981F80CC00B720C7382F8303082F84B
S31500000CB05230A2F8FE03F8BD0121C82085F8801441
S31500000CC000F080F895F88034012BFBD1B7E74FF49C
S31500000CD07A70FFF76FFFB8E700E0014000C00140FF
S31500000CE00800002000700040002D310100C2EB0B0F
S31500000CF054020020211201200020004000127A0038
S31500000D0000366E0138B50025284C0121C82084F82C
S31500000D10285000F057F884F8245094F82430002B1B
S31500000D20FBD194F82430214943F0020384F824309F
S31500000D3091F82430C3F340009B07F9D41B4A81F88D
S31500000D40220092F8223003F0FF00002BF9D192F82E
S31500000D504030164960F3C71382F8403091F84030AE
S31500000D60DB09FBD191F84200104A63F3C71081F802
S31500000D70420092F84230DB09FBD192F844000B495D
S31500000D8063F3C71082F8440091F84430C3F3C014EB
S31500000D90DB09F9D1012000F0E1F8054B012083F8C9
S31500000DA0BB44BDE8384000F0A9B800BF0030084099
S31500000DB000E00140704700BFA0F101000028FBD110
S31500000DC0704700BF4FF47A7310B400FB01F1114C69
S31500000DD0114A2468B2FBF4F2A1FB03043CB9B0FB50
S31500000DE0F2F0800860B15DF8044BFFF7E5BF9200B2
S31500000DF0B1FBF2F1A1FB03132BB908460028F2D18F
S31500000E005DF8044B70474FF0FF3C5DF8044B6046BD
S31500000E10FFF7D2BF5402002000CA9A3B70B50024E7
S31500000E200B4B0C4EB3F82021B3F84051ADB2154030
S31500000E3025FA04F3DB0704D556F82430E0B203B1F3
S31500000E4098470134102CF3D1014BA3F8305170BDF3
S31500000E50006000408800002030B5032085B000F017
S31500000E607DF86FF0FF054FF0FF31204C002322463E
S31500000E704FF0010E1E488564CDE90111039104F17E
S31500000E80C00532F8020F590960B104A800EB8101D0
S31500000E9051F80C0C03F01F0C0EFA0CFC20EA0C00A7
S31500000EA041F80C0C954203F10103EAD10199114B6B
S31500000EB00F4A03201167C3F8801202995167C3F8DD
S31500000EC0841203999167C3F8881200F017F800237B
S31500000ED0094834F8022F03F1C00101330AB140F882
S31500000EE02120A542F5D105B030BD00BFBE110000DE
S31500000EF00080004000E100E000600040EFF3108158
S31500000F00012383F31088124B33F8102092B22AB1D2
S31500000F1033F81020013A92B223F8102033F810303B
S31500000F209BB293B910B40B4A0B4CB2F8FE3334F8AB
S31500000F3010009BB243F4254323EA0003A2F8FE33D4
S31500000F4081F310885DF8044B704781F31088704771
S31500000F504C02002000E00140BC12000030B4EFF368
S31500000F601081012383F310880E4A32F810309BB2A9
S31500000F706BB90D4C0D4DB4F8FE3335F810C09BB26D
S31500000F8043EA0C0343F425439BB2A4F8FE3332F83C
S31500000F90103001339BB222F8103081F3108830BC38
S31500000FA0704700BF4C02002000E00140BC12000068
S31500000FB000BE704708B500F003F8FFF7A9F9FEE791
S31500000FC04FF4700270B52B4B2B4CC3F888200020D1
S31500000FD09C60FFF791F9FFF7EFFD0120FFF78CF911
S31500000FE02368A3F5806383F30A882448244A0021F2
S31500000FF0121A00F055F82348234A2449121A00F021
S3150000100057F8234D234B5B1B002B07DD00249E1056
S3150000101055F8043B01349847A642F9DCFFF7B6FDC4
S31500001020FFF770FE0320FFF799FF00234FF6FF70CE
S31500001030194903F1080201330C2B21F81200F8D1EB
S3150000104000240320FFF75AFF0320FFF787FF134B07
S3150000105003205C609C60DC601C61FFF74FFF022090
S31500001060FFF74AF9FFF7F8FE2046BDE87040FFF7A4
S31500001070A1BE00BF00ED00E0000000002800002037
S31500001080580200200000002008000020C8120000BE
S315000010900000002004000020000D084000000E4063
S315000010A002440346934200D1704703F8011BF9E757
S315000010B00A44431E914200D1704710B511F8014B06
S315000010C0914203F8014FF9D110BDFFFF4275696CDB
S315000010D07420776974682052656E65736173204168
S315000010E06476616E63656420466C657869626C65DA
S315000010F020536F667477617265205061636B616718
S31500001100652076657273696F6E20352E382E300035
S31500001110352E382E3000000000000805F8B500BF57
S31500001120F8BC08BC9E467047F8B500BFF8BC08BCC2
S315000011309E4670476800002040110000881200009B
S3150000114000000000A08601000000000050C300005F
S31500001150020A00009D02000000000000601100006D
S315000011600000010000000000000000000000000078
S315000011700000000000000000000000000000000069
S315000011800000FFFFDFDF000000000000000000009D
S315000011900000000000000000000000010300000045
S315000011A0A811000000000000000001000801000076
S315000011B0000001030E010000000001000003000012
S315000011C0D800000000000000000000000000000041
S315000011D00000000000000000000000000000000009
S315000011E000000000000000000000000000000000F9
S315000011F000000000000000000000000000000000E9
S3150000120000000000000000000000000000000000D8
S3150000121000000000000000000000000000000000C8
S3150000122000000000000000000000000000000000B8
S3150000123000000000000000000000000000000000A8
S315000012400000000000000000000000000000000098
S315000012500000000000000000000000000000000088
S315000012600000000000000000000000000000000078
S315000012700000000000000000000000000000000068
S31500001280020403040404FFFFF1070000D104000078
S31500001290C5040000DD040000E9040000210500008B
S315000012A049050000A10600007D050000F5050000C7
S315000012B091050000A90500004D0A0000010002008A
S30D000012C0080010000000000008
S30D000012C82D02000005020000E2
S3150100A100FFFFFFFFFFFFFFFFFFFFFFFFFFFFFFFF58
S3090100A110FFFFFFFF48
S3090100A134FFFFFFFF24
S3150100A200FFFDFFFFFFFFFFFFFFFFFFFFFFFFFFFF59
S3150100A210FFFFFFFFFFFFFFFFFFFFFFFFFFFFFFFF47
S3150100A220FFFFFFFFFFFFFFFFFFFFFFFFFFFFFFFF37
S3150100A230FFFFFFFFFFFFFFFFFFFFFFFFFFFFFFFF27
S3150100A240FFFFFFFFFFFFFFFFFFFFFFFFFFFFFFFF17
S3150100A250FFFFFFFFFFFFFFFFFFFFFFFFFFFFFFFF07
S3150100A260FFFFFFFFFFFFFFFFFFFFFFFFFFFFFFFFF7
S3150100A270FFFFFFFFFFFFFFFFFFFFFFFFFFFFFFFFE7
S3150100A280F8F8FFFFFFFFFFFFFFFFFFFFFFFFFFFFE5
S3150100A290FFFFFFFFFFFFFFFFFFFFFFFFFFFFFFFFC7
S3150100A2A0FFFFFFFFFFFFFFFFFFFFFFFFFFFFFFFFB7
S3150100A2B0FFFFFFFFFFFFFFFFFFFFFFFFFFFFFFFFA7
S3150100A2C0FFFFFFFFFFFFFFFFFFFFFFFFFFFFFFFF97
S70500000FB536
